{
  "contractName": "Wallet",
  "abi": [
    {
      "inputs": [
        {
          "internalType": "address[]",
          "name": "_owners",
          "type": "address[]"
        },
        {
          "internalType": "uint256",
          "name": "_limit",
          "type": "uint256"
        }
      ],
      "stateMutability": "nonpayable",
      "type": "constructor"
    },
    {
      "anonymous": false,
      "inputs": [
        {
          "indexed": false,
          "internalType": "bool",
          "name": "over_limit",
          "type": "bool"
        }
      ],
      "name": "transferOverLimit_event",
      "type": "event"
    },
    {
      "inputs": [
        {
          "internalType": "uint256",
          "name": "",
          "type": "uint256"
        }
      ],
      "name": "owners",
      "outputs": [
        {
          "internalType": "address",
          "name": "",
          "type": "address"
        }
      ],
      "stateMutability": "view",
      "type": "function",
      "constant": true
    },
    {
      "inputs": [],
      "name": "getOwners",
      "outputs": [
        {
          "internalType": "address[]",
          "name": "",
          "type": "address[]"
        }
      ],
      "stateMutability": "view",
      "type": "function",
      "constant": true
    },
    {
      "inputs": [],
      "name": "senderIsOwner",
      "outputs": [
        {
          "internalType": "bool",
          "name": "",
          "type": "bool"
        }
      ],
      "stateMutability": "view",
      "type": "function",
      "constant": true
    },
    {
      "inputs": [],
      "name": "deposit",
      "outputs": [],
      "stateMutability": "payable",
      "type": "function",
      "payable": true
    },
    {
      "inputs": [],
      "name": "getContractBalance",
      "outputs": [
        {
          "internalType": "uint256",
          "name": "",
          "type": "uint256"
        }
      ],
      "stateMutability": "view",
      "type": "function",
      "constant": true
    },
    {
      "inputs": [],
      "name": "withdrawContractBalance",
      "outputs": [],
      "stateMutability": "nonpayable",
      "type": "function"
    },
    {
      "inputs": [
        {
          "internalType": "uint256",
          "name": "_amount",
          "type": "uint256"
        }
      ],
      "name": "createTransfer",
      "outputs": [],
      "stateMutability": "nonpayable",
      "type": "function"
    },
    {
      "inputs": [],
      "name": "getAllTransferRequests",
      "outputs": [
        {
          "components": [
            {
              "internalType": "uint256",
              "name": "id",
              "type": "uint256"
            },
            {
              "internalType": "address payable",
              "name": "receiver",
              "type": "address"
            },
            {
              "internalType": "uint256",
              "name": "amount",
              "type": "uint256"
            },
            {
              "internalType": "uint256",
              "name": "approved",
              "type": "uint256"
            },
            {
              "internalType": "bool",
              "name": "hasBeenSent",
              "type": "bool"
            }
          ],
          "internalType": "struct Wallet.Transfer[]",
          "name": "",
          "type": "tuple[]"
        }
      ],
      "stateMutability": "view",
      "type": "function",
      "constant": true
    },
    {
      "inputs": [],
      "name": "getWalletBalances",
      "outputs": [
        {
          "components": [
            {
              "internalType": "uint256",
              "name": "deposited",
              "type": "uint256"
            },
            {
              "internalType": "uint256",
              "name": "transfersOpen",
              "type": "uint256"
            },
            {
              "internalType": "uint256",
              "name": "transfersOpenCount",
              "type": "uint256"
            },
            {
              "internalType": "uint256",
              "name": "transfersApproved",
              "type": "uint256"
            },
            {
              "internalType": "uint256",
              "name": "transfersApprovedCount",
              "type": "uint256"
            }
          ],
          "internalType": "struct Wallet.WalletContent",
          "name": "",
          "type": "tuple"
        }
      ],
      "stateMutability": "view",
      "type": "function",
      "constant": true
    },
    {
      "inputs": [
        {
          "internalType": "uint256",
          "name": "_id",
          "type": "uint256"
        }
      ],
      "name": "approveTransfer",
      "outputs": [],
      "stateMutability": "nonpayable",
      "type": "function"
    },
    {
      "inputs": [
        {
          "internalType": "uint256",
          "name": "_id",
          "type": "uint256"
        }
      ],
      "name": "withdrawApprovedTransfer",
      "outputs": [],
      "stateMutability": "nonpayable",
      "type": "function"
    }
  ],
  "bytecode": "0x60806040523480156200001157600080fd5b5060405162002297380380620022978339818101604052810190620000379190620001dd565b81600090805190602001906200004f9291906200005f565b508060018190555050506200033b565b828054828255906000526020600020908101928215620000db579160200282015b82811115620000da5782518260006101000a81548173ffffffffffffffffffffffffffffffffffffffff021916908373ffffffffffffffffffffffffffffffffffffffff1602179055509160200191906001019062000080565b5b509050620000ea9190620000ee565b5090565b5b8082111562000109576000816000905550600101620000ef565b5090565b6000620001246200011e846200026b565b62000237565b905080838252602082019050828560208602820111156200014457600080fd5b60005b858110156200017857816200015d888262000182565b84526020840193506020830192505060018101905062000147565b5050509392505050565b600081519050620001938162000307565b92915050565b600082601f830112620001ab57600080fd5b8151620001bd8482602086016200010d565b91505092915050565b600081519050620001d78162000321565b92915050565b60008060408385031215620001f157600080fd5b600083015167ffffffffffffffff8111156200020c57600080fd5b6200021a8582860162000199565b92505060206200022d85828601620001c6565b9150509250929050565b6000604051905081810181811067ffffffffffffffff82111715620002615762000260620002d8565b5b8060405250919050565b600067ffffffffffffffff821115620002895762000288620002d8565b5b602082029050602081019050919050565b6000620002a782620002ae565b9050919050565b600073ffffffffffffffffffffffffffffffffffffffff82169050919050565b6000819050919050565b7f4e487b7100000000000000000000000000000000000000000000000000000000600052604160045260246000fd5b62000312816200029a565b81146200031e57600080fd5b50565b6200032c81620002ce565b81146200033857600080fd5b50565b611f4c806200034b6000396000f3fe60806040526004361061009c5760003560e01c806376537438116100645780637653743814610188578063a0e67e2b146101b1578063bfab3db9146101dc578063cacca4a0146101f3578063d0e30db01461021c578063d82d414b146102265761009c565b8063025e7c27146100a1578063348c3419146100de5780635172528c1461010957806352577bdf146101345780636f9fb98a1461015d575b600080fd5b3480156100ad57600080fd5b506100c860048036038101906100c391906117e2565b610251565b6040516100d59190611bb0565b60405180910390f35b3480156100ea57600080fd5b506100f3610290565b6040516101009190611bed565b60405180910390f35b34801561011557600080fd5b5061011e61037e565b60405161012b9190611c0f565b60405180910390f35b34801561014057600080fd5b5061015b600480360381019061015691906117e2565b610451565b005b34801561016957600080fd5b50610172610a12565b60405161017f9190611d05565b60405180910390f35b34801561019457600080fd5b506101af60048036038101906101aa91906117e2565b610a31565b005b3480156101bd57600080fd5b506101c6610d29565b6040516101d39190611bcb565b60405180910390f35b3480156101e857600080fd5b506101f1610db7565b005b3480156101ff57600080fd5b5061021a600480360381019061021591906117e2565b610f5a565b005b610224611673565b005b34801561023257600080fd5b5061023b6116ce565b6040516102489190611cea565b60405180910390f35b6000818154811061026157600080fd5b906000526020600020016000915054906101000a900473ffffffffffffffffffffffffffffffffffffffff1681565b60606003805480602002602001604051908101604052809291908181526020016000905b8282101561037557838290600052602060002090600502016040518060a0016040529081600082015481526020016001820160009054906101000a900473ffffffffffffffffffffffffffffffffffffffff1673ffffffffffffffffffffffffffffffffffffffff1673ffffffffffffffffffffffffffffffffffffffff16815260200160028201548152602001600382015481526020016004820160009054906101000a900460ff161515151581525050815260200190600101906102b4565b50505050905090565b600080600090505b600080549050811015610448573373ffffffffffffffffffffffffffffffffffffffff16600082815481106103e4577f4e487b7100000000000000000000000000000000000000000000000000000000600052603260045260246000fd5b9060005260206000200160009054906101000a900473ffffffffffffffffffffffffffffffffffffffff1673ffffffffffffffffffffffffffffffffffffffff16141561043557600191505061044e565b808061044090611e87565b915050610386565b50600090505b90565b6000805b600080549050811015610512573373ffffffffffffffffffffffffffffffffffffffff16600082815481106104b3577f4e487b7100000000000000000000000000000000000000000000000000000000600052603260045260246000fd5b9060005260206000200160009054906101000a900473ffffffffffffffffffffffffffffffffffffffff1673ffffffffffffffffffffffffffffffffffffffff1614156104ff57600191505b808061050a90611e87565b915050610455565b50600115158115151461055a576040517f08c379a000000000000000000000000000000000000000000000000000000000815260040161055190611c8a565b60405180910390fd5b6000610564610a12565b9050600081116105a9576040517f08c379a00000000000000000000000000000000000000000000000000000000081526004016105a090611caa565b60405180910390fd5b600154600384815481106105e6577f4e487b7100000000000000000000000000000000000000000000000000000000600052603260045260246000fd5b9060005260206000209060050201600301541015610639576040517f08c379a000000000000000000000000000000000000000000000000000000000815260040161063090611cca565b60405180910390fd5b6000151560038481548110610677577f4e487b7100000000000000000000000000000000000000000000000000000000600052603260045260246000fd5b906000526020600020906005020160040160009054906101000a900460ff161515146106d8576040517f08c379a00000000000000000000000000000000000000000000000000000000081526004016106cf90611c6a565b60405180910390fd5b60038381548110610712577f4e487b7100000000000000000000000000000000000000000000000000000000600052603260045260246000fd5b9060005260206000209060050201600201546002600060038681548110610762577f4e487b7100000000000000000000000000000000000000000000000000000000600052603260045260246000fd5b906000526020600020906005020160010160009054906101000a900473ffffffffffffffffffffffffffffffffffffffff1673ffffffffffffffffffffffffffffffffffffffff1673ffffffffffffffffffffffffffffffffffffffff16815260200190815260200160002060030160008282546107e09190611df9565b9250508190555060016002600060038681548110610827577f4e487b7100000000000000000000000000000000000000000000000000000000600052603260045260246000fd5b906000526020600020906005020160010160009054906101000a900473ffffffffffffffffffffffffffffffffffffffff1673ffffffffffffffffffffffffffffffffffffffff1673ffffffffffffffffffffffffffffffffffffffff16815260200190815260200160002060040160008282546108a59190611df9565b925050819055506001600384815481106108e8577f4e487b7100000000000000000000000000000000000000000000000000000000600052603260045260246000fd5b906000526020600020906005020160040160006101000a81548160ff0219169083151502179055506003838154811061094a577f4e487b7100000000000000000000000000000000000000000000000000000000600052603260045260246000fd5b906000526020600020906005020160010160009054906101000a900473ffffffffffffffffffffffffffffffffffffffff1673ffffffffffffffffffffffffffffffffffffffff166108fc600385815481106109cf577f4e487b7100000000000000000000000000000000000000000000000000000000600052603260045260246000fd5b9060005260206000209060050201600201549081150290604051600060405180830381858888f19350505050158015610a0c573d6000803e3d6000fd5b50505050565b60003073ffffffffffffffffffffffffffffffffffffffff1631905090565b600260003373ffffffffffffffffffffffffffffffffffffffff1673ffffffffffffffffffffffffffffffffffffffff16815260200190815260200160002060000154811115610ab8577ffaf43cc97af99b5436a343c2ae9bb20ddff3ed687c5b6924b0e9ab3d353e409e6001604051610aab9190611c0f565b60405180910390a1610d26565b7ffaf43cc97af99b5436a343c2ae9bb20ddff3ed687c5b6924b0e9ab3d353e409e6000604051610ae89190611c0f565b60405180910390a1610af8611757565b60038054905081600001818152505033816020019073ffffffffffffffffffffffffffffffffffffffff16908173ffffffffffffffffffffffffffffffffffffffff1681525050818160400181815250506000816060018181525050600081608001901515908115158152505081600260003373ffffffffffffffffffffffffffffffffffffffff1673ffffffffffffffffffffffffffffffffffffffff1681526020019081526020016000206000016000828254610bb79190611df9565b9250508190555081600260003373ffffffffffffffffffffffffffffffffffffffff1673ffffffffffffffffffffffffffffffffffffffff1681526020019081526020016000206001016000828254610c109190611da3565b925050819055506001600260003373ffffffffffffffffffffffffffffffffffffffff1673ffffffffffffffffffffffffffffffffffffffff1681526020019081526020016000206002016000828254610c6a9190611da3565b9250508190555060038190806001815401808255809150506001900390600052602060002090600502016000909190919091506000820151816000015560208201518160010160006101000a81548173ffffffffffffffffffffffffffffffffffffffff021916908373ffffffffffffffffffffffffffffffffffffffff160217905550604082015181600201556060820151816003015560808201518160040160006101000a81548160ff0219169083151502179055505050505b50565b60606000805480602002602001604051908101604052809291908181526020018280548015610dad57602002820191906000526020600020905b8160009054906101000a900473ffffffffffffffffffffffffffffffffffffffff1673ffffffffffffffffffffffffffffffffffffffff1681526020019060010190808311610d63575b5050505050905090565b6000805b600080549050811015610e78573373ffffffffffffffffffffffffffffffffffffffff1660008281548110610e19577f4e487b7100000000000000000000000000000000000000000000000000000000600052603260045260246000fd5b9060005260206000200160009054906101000a900473ffffffffffffffffffffffffffffffffffffffff1673ffffffffffffffffffffffffffffffffffffffff161415610e6557600191505b8080610e7090611e87565b915050610dbb565b506001151581151514610ec0576040517f08c379a0000000000000000000000000000000000000000000000000000000008152600401610eb790611c8a565b60405180910390fd5b6000610eca610a12565b905060008111610f0f576040517f08c379a0000000000000000000000000000000000000000000000000000000008152600401610f0690611caa565b60405180910390fd5b3373ffffffffffffffffffffffffffffffffffffffff166108fc829081150290604051600060405180830381858888f19350505050158015610f55573d6000803e3d6000fd5b505050565b6000805b60008054905081101561101b573373ffffffffffffffffffffffffffffffffffffffff1660008281548110610fbc577f4e487b7100000000000000000000000000000000000000000000000000000000600052603260045260246000fd5b9060005260206000200160009054906101000a900473ffffffffffffffffffffffffffffffffffffffff1673ffffffffffffffffffffffffffffffffffffffff16141561100857600191505b808061101390611e87565b915050610f5e565b506001151581151514611063576040517f08c379a000000000000000000000000000000000000000000000000000000000815260040161105a90611c8a565b60405180910390fd5b60001515600460003373ffffffffffffffffffffffffffffffffffffffff1673ffffffffffffffffffffffffffffffffffffffff168152602001908152602001600020600084815260200190815260200160002060009054906101000a900460ff16151514611107576040517f08c379a00000000000000000000000000000000000000000000000000000000081526004016110fe90611c2a565b60405180910390fd5b6000151560038381548110611145577f4e487b7100000000000000000000000000000000000000000000000000000000600052603260045260246000fd5b906000526020600020906005020160040160009054906101000a900460ff161515146111a6576040517f08c379a000000000000000000000000000000000000000000000000000000000815260040161119d90611c4a565b60405180910390fd5b6001600460003373ffffffffffffffffffffffffffffffffffffffff1673ffffffffffffffffffffffffffffffffffffffff168152602001908152602001600020600084815260200190815260200160002060006101000a81548160ff02191690831515021790555060016003838154811061124b577f4e487b7100000000000000000000000000000000000000000000000000000000600052603260045260246000fd5b9060005260206000209060050201600301600082825461126b9190611da3565b92505081905550600154600383815481106112af577f4e487b7100000000000000000000000000000000000000000000000000000000600052603260045260246000fd5b9060005260206000209060050201600301541061166f5760038281548110611300577f4e487b7100000000000000000000000000000000000000000000000000000000600052603260045260246000fd5b9060005260206000209060050201600201546002600060038581548110611350577f4e487b7100000000000000000000000000000000000000000000000000000000600052603260045260246000fd5b906000526020600020906005020160010160009054906101000a900473ffffffffffffffffffffffffffffffffffffffff1673ffffffffffffffffffffffffffffffffffffffff1673ffffffffffffffffffffffffffffffffffffffff16815260200190815260200160002060010160008282546113ce9190611df9565b9250508190555060016002600060038581548110611415577f4e487b7100000000000000000000000000000000000000000000000000000000600052603260045260246000fd5b906000526020600020906005020160010160009054906101000a900473ffffffffffffffffffffffffffffffffffffffff1673ffffffffffffffffffffffffffffffffffffffff1673ffffffffffffffffffffffffffffffffffffffff16815260200190815260200160002060020160008282546114939190611df9565b92505081905550600382815481106114d4577f4e487b7100000000000000000000000000000000000000000000000000000000600052603260045260246000fd5b9060005260206000209060050201600201546002600060038581548110611524577f4e487b7100000000000000000000000000000000000000000000000000000000600052603260045260246000fd5b906000526020600020906005020160010160009054906101000a900473ffffffffffffffffffffffffffffffffffffffff1673ffffffffffffffffffffffffffffffffffffffff1673ffffffffffffffffffffffffffffffffffffffff16815260200190815260200160002060030160008282546115a29190611da3565b92505081905550600160026000600385815481106115e9577f4e487b7100000000000000000000000000000000000000000000000000000000600052603260045260246000fd5b906000526020600020906005020160010160009054906101000a900473ffffffffffffffffffffffffffffffffffffffff1673ffffffffffffffffffffffffffffffffffffffff1673ffffffffffffffffffffffffffffffffffffffff16815260200190815260200160002060040160008282546116679190611da3565b925050819055505b5050565b34600260003373ffffffffffffffffffffffffffffffffffffffff1673ffffffffffffffffffffffffffffffffffffffff16815260200190815260200160002060000160008282546116c59190611da3565b92505081905550565b6116d661179e565b600260003373ffffffffffffffffffffffffffffffffffffffff1673ffffffffffffffffffffffffffffffffffffffff1681526020019081526020016000206040518060a001604052908160008201548152602001600182015481526020016002820154815260200160038201548152602001600482015481525050905090565b6040518060a0016040528060008152602001600073ffffffffffffffffffffffffffffffffffffffff16815260200160008152602001600081526020016000151581525090565b6040518060a0016040528060008152602001600081526020016000815260200160008152602001600081525090565b6000813590506117dc81611eff565b92915050565b6000602082840312156117f457600080fd5b6000611802848285016117cd565b91505092915050565b6000611817838361184a565b60208301905092915050565b600061182f8383611ac2565b60a08301905092915050565b61184481611e3f565b82525050565b61185381611e2d565b82525050565b61186281611e2d565b82525050565b600061187382611d40565b61187d8185611d70565b935061188883611d20565b8060005b838110156118b95781516118a0888261180b565b97506118ab83611d56565b92505060018101905061188c565b5085935050505092915050565b60006118d182611d4b565b6118db8185611d81565b93506118e683611d30565b8060005b838110156119175781516118fe8882611823565b975061190983611d63565b9250506001810190506118ea565b5085935050505092915050565b61192d81611e51565b82525050565b61193c81611e51565b82525050565b600061194f602083611d92565b91507f74686973206d73672e73656e64657220616c726561647920617070726f7665646000830152602082019050919050565b600061198f601c83611d92565b91507f66756e6473206861766520616c7265616479206265656e2073656e74000000006000830152602082019050919050565b60006119cf601583611d92565b91507f7472616e7366657220616c72656164792073656e7400000000000000000000006000830152602082019050919050565b6000611a0f600983611d92565b91507f6e6f74206f776e657200000000000000000000000000000000000000000000006000830152602082019050919050565b6000611a4f601983611d92565b91507f636f6e74726163742062616c616e6365206973203020455448000000000000006000830152602082019050919050565b6000611a8f601483611d92565b91507f6e6f7420656e6f75676820617070726f76616c730000000000000000000000006000830152602082019050919050565b60a082016000820151611ad86000850182611b92565b506020820151611aeb602085018261183b565b506040820151611afe6040850182611b92565b506060820151611b116060850182611b92565b506080820151611b246080850182611924565b50505050565b60a082016000820151611b406000850182611b92565b506020820151611b536020850182611b92565b506040820151611b666040850182611b92565b506060820151611b796060850182611b92565b506080820151611b8c6080850182611b92565b50505050565b611b9b81611e7d565b82525050565b611baa81611e7d565b82525050565b6000602082019050611bc56000830184611859565b92915050565b60006020820190508181036000830152611be58184611868565b905092915050565b60006020820190508181036000830152611c0781846118c6565b905092915050565b6000602082019050611c246000830184611933565b92915050565b60006020820190508181036000830152611c4381611942565b9050919050565b60006020820190508181036000830152611c6381611982565b9050919050565b60006020820190508181036000830152611c83816119c2565b9050919050565b60006020820190508181036000830152611ca381611a02565b9050919050565b60006020820190508181036000830152611cc381611a42565b9050919050565b60006020820190508181036000830152611ce381611a82565b9050919050565b600060a082019050611cff6000830184611b2a565b92915050565b6000602082019050611d1a6000830184611ba1565b92915050565b6000819050602082019050919050565b6000819050602082019050919050565b600081519050919050565b600081519050919050565b6000602082019050919050565b6000602082019050919050565b600082825260208201905092915050565b600082825260208201905092915050565b600082825260208201905092915050565b6000611dae82611e7d565b9150611db983611e7d565b9250827fffffffffffffffffffffffffffffffffffffffffffffffffffffffffffffffff03821115611dee57611ded611ed0565b5b828201905092915050565b6000611e0482611e7d565b9150611e0f83611e7d565b925082821015611e2257611e21611ed0565b5b828203905092915050565b6000611e3882611e5d565b9050919050565b6000611e4a82611e5d565b9050919050565b60008115159050919050565b600073ffffffffffffffffffffffffffffffffffffffff82169050919050565b6000819050919050565b6000611e9282611e7d565b91507fffffffffffffffffffffffffffffffffffffffffffffffffffffffffffffffff821415611ec557611ec4611ed0565b5b600182019050919050565b7f4e487b7100000000000000000000000000000000000000000000000000000000600052601160045260246000fd5b611f0881611e7d565b8114611f1357600080fd5b5056fea2646970667358221220a5766c8449109deed649e394be54b59cfe10c4f385cbf3255bdfd838007bf6b964736f6c63430008000033",
  "immutableReferences": {},
  "source": "// SPDX-License-Identifier: UNLICENSED\r\npragma solidity 0.8;\r\npragma abicoder v2;\r\n\r\ncontract Wallet {\r\n    address[] public owners;\r\n    uint approvalLimit;\r\n\r\n    struct WalletContent {\r\n        uint deposited;\r\n        uint transfersOpen;\r\n        uint transfersOpenCount;\r\n        uint transfersApproved;\r\n        uint transfersApprovedCount;\r\n    }\r\n\r\n    mapping(address => WalletContent) walletUsers;\r\n\r\n    struct Transfer {\r\n        uint id;\r\n        address payable receiver;\r\n        uint amount;\r\n        uint approved;\r\n        bool hasBeenSent;\r\n    }\r\n\r\n    Transfer[] transferRequests;\r\n\r\n    mapping(address => mapping(uint => bool)) approvals;\r\n\r\n\r\n    //Should only allow people in the owners list to continue the execution.\r\n    modifier onlyOwners() {\r\n        bool isOwner = false;\r\n        for (uint i = 0; i < owners.length; i++) {\r\n            if (owners[i] == msg.sender) {\r\n                isOwner = true;\r\n            }\r\n        }\r\n        require(isOwner == true, \"not owner\");\r\n        _;\r\n    }\r\n\r\n\r\n    event transferOverLimit_event(bool over_limit);\r\n\r\n\r\n    //Should initialize the owners list and the limit\r\n    constructor(address[] memory _owners, uint _limit) {\r\n        owners = _owners;\r\n        approvalLimit = _limit;\r\n    }\r\n\r\n\r\n    function getOwners() public view returns(address[] memory) {\r\n        return owners;\r\n    }\r\n\r\n    function senderIsOwner() public view returns(bool) {\r\n        for (uint i = 0; i < owners.length; i++) {\r\n            if (owners[i] == msg.sender) {\r\n                return true;\r\n            }\r\n        }\r\n        return false;\r\n    }\r\n\r\n    // deposit funds\r\n    function deposit() public payable {\r\n        walletUsers[msg.sender].deposited += msg.value;\r\n    }\r\n\r\n    // total contract balance\r\n    function getContractBalance() public view returns(uint) {\r\n        return (payable(address(this))).balance;\r\n    }\r\n\r\n    // balances for each wallet user\r\n    function withdrawContractBalance() public onlyOwners {\r\n        uint contractBalance = getContractBalance();\r\n        require(contractBalance > 0, \"contract balance is 0 ETH\");\r\n        payable(msg.sender).transfer(contractBalance);\r\n    }\r\n\r\n    //Create an instance of the Transfer struct and add it to the transferRequests array\r\n    function createTransfer(uint _amount) public {\r\n        //require(_amount <= walletUsers[msg.sender].deposited, \"withdrawal amount is higher than your deposits\");\r\n        if (_amount > walletUsers[msg.sender].deposited) {\r\n            emit transferOverLimit_event(true);\r\n        }\r\n        else {\r\n            emit transferOverLimit_event(false);\r\n            Transfer memory transferReq;\r\n            transferReq.id = transferRequests.length;\r\n            transferReq.receiver = payable(msg.sender);\r\n            transferReq.amount = _amount;\r\n            transferReq.approved = 0;\r\n            transferReq.hasBeenSent = false;\r\n\r\n            walletUsers[msg.sender].deposited -= _amount;\r\n            walletUsers[msg.sender].transfersOpen += _amount;\r\n            walletUsers[msg.sender].transfersOpenCount += 1;\r\n\r\n            transferRequests.push(transferReq);\r\n        }\r\n    }\r\n\r\n    // all transfer requests\r\n    function getAllTransferRequests() public view returns(Transfer[] memory) {\r\n        return transferRequests;\r\n    }\r\n\r\n    function getWalletBalances() public view returns(WalletContent memory) {\r\n        return walletUsers[msg.sender];\r\n    }\r\n\r\n    // approve transfers\r\n    function approveTransfer(uint _id) public onlyOwners {\r\n        require(approvals[msg.sender][_id] == false, \"this msg.sender already approved\");\r\n        require(transferRequests[_id].hasBeenSent == false, \"funds have already been sent\");\r\n        approvals[msg.sender][_id] = true;\r\n        transferRequests[_id].approved += 1;\r\n\r\n        if (transferRequests[_id].approved >= approvalLimit) {\r\n            walletUsers[transferRequests[_id].receiver].transfersOpen -= transferRequests[_id].amount;\r\n            walletUsers[transferRequests[_id].receiver].transfersOpenCount -= 1;\r\n            walletUsers[transferRequests[_id].receiver].transfersApproved += transferRequests[_id].amount;\r\n            walletUsers[transferRequests[_id].receiver].transfersApprovedCount += 1;\r\n        }\r\n    }\r\n\r\n    // withdraw approved transfers\r\n    function withdrawApprovedTransfer(uint _id) public onlyOwners {\r\n        uint contractBalance = getContractBalance();\r\n        require(contractBalance > 0, \"contract balance is 0 ETH\");\r\n        require(transferRequests[_id].approved >= approvalLimit, \"not enough approvals\");\r\n        require(transferRequests[_id].hasBeenSent == false, \"transfer already sent\");\r\n\r\n        walletUsers[transferRequests[_id].receiver].transfersApproved -= transferRequests[_id].amount;\r\n        walletUsers[transferRequests[_id].receiver].transfersApprovedCount -= 1;\r\n\r\n        transferRequests[_id].hasBeenSent = true;\r\n        transferRequests[_id].receiver.transfer(transferRequests[_id].amount);\r\n    }\r\n\r\n}\r\n",
  "sourcePath": "C:/ethereum/multi-sig_wallet/contracts/multi-sig.sol",
  "compiler": {
    "name": "solc",
    "version": "0.8.0+commit.c7dfd78e.Emscripten.clang"
  },
  "schemaVersion": "3.3.3",
  "updatedAt": "2021-01-22T13:53:12.121Z",
  "networkType": "ethereum",
  "devdoc": {
    "kind": "dev",
    "methods": {},
    "version": 1
  },
  "userdoc": {
    "kind": "user",
    "methods": {},
    "version": 1
  }
}